:020000040800F2
:10000000601100204D1C0008CF010008D10100083C
:10001000D5010008D9010008DD010008000000003A
:10002000000000000000000000000000E3010008E4
:10003000E101000800000000E50100084901000896
:10004000E7010008E9010008EB010008ED010008E4
:10005000EF010008F1010008F3010008F5010008B4
:10006000F7010008F9010008FB010008FD01000884
:10007000FF01000801020008030200080502000851
:1000800007020008090200080B020008671C0008AC
:10009000671C0008671C0008671C000815020008A0
:1000A00017020008190200081B0200081D020008C0
:1000B0001F02000821020008230200082502000890
:1000C00027020008290200082B0200082D02000860
:1000D0002F020008790100087B01000831020008A6
:1000E000330200083502000837020008DFF810D09C
:1000F00006F046F90048004705010008AFF300800C
:100100006011002010B5002404F0E0FE01F0B0FD05
:1001100002F050FF02F087FF03F0C3FA04F03CF84E
:1001200004F022F901F080FF03F095FE03A003F034
:1001300084F804F0B4FA002010BD000073746172FA
:1001400074200D0A0000000010B544480068401CEF
:100150004249086008460068B0F5FA7F06D90221D6
:10016000012001F034FE00203C4908603C48006852
:10017000401C3B49086010BD704710B500BF2021EE
:10018000384800F00BFE0028F9D0364800F09CFDFE
:10019000C4B20221032001F01AFE0D2C03D100206D
:1001A0003149488012E00A2C03D101202E49087001
:1001B0000CE02D484088A02808DA2B4841880830F8
:1001C000445408384088401C2749488010BD704777
:1001D00000BFFEE700BFFEE700BFFEE700BFFEE78F
:1001E0007047704770477047704770477047704757
:1001F0007047704770477047704770477047704747
:100200007047704770477047704770477047704736
:100210007047704770477047704770477047704726
:100220007047704770477047704770477047704716
:100230007047704770477047704770477047704706
:1002400070477047704770477047704770477047F6
:1002500070477047704770477047000004000020E7
:1002600048090020004400402A030020314901438E
:10027000314A1160704770B5002100230F22C47805
:1002800004B32D4C246804F4E064C4F5E064210A4E
:10029000C1F10403CA40447804FA03F1847814409D
:1002A00021430901254C0678A155047804F01F0567
:1002B0000124AC4005786D11AD0005F1E025C5F8CD
:1002C000004109E0047804F01F050124AC401C4DF6
:1002D0000678761145F8264070BD1A4A0A40024356
:1002E000154B1B1F1A60704739B1134A121D126853
:1002F0000243114B1B1D1A6006E00F4A121D1268C3
:1003000082430D4B1B1D1A607047042808D14FF023
:10031000E021096941F004014FF0E022116107E09A
:100320004FF0E021096921F004014FF0E022116152
:10033000704700000000FA050CED00E000E400E06A
:1003400080E100E080FFFF1F10B50446CC488442E6
:1003500008D10121042000F02DFB0021042000F031
:1003600029FB46E0C748844208D10121082000F05B
:1003700021FB0021082000F01DFB3AE0C248844226
:1003800008D10121102000F015FB0021102000F001
:1003900011FB2EE0BD48844208D10121202000F04D
:1003A00009FB0021202000F005FB22E0B848844230
:1003B00008D10121402000F0FDFA0021402000F08A
:1003C000F9FA16E0B348844208D10121802000F0F8
:1003D000F1FA0021802000F0EDFA0AE0AE488442F4
:1003E00007D10121801500F0E5FA0021A01500F0E9
:1003F000E1FA10BD10B50121084600F0DBFA00213A
:10040000012000F0D7FA10BD2DE9F0410246002589
:100410000026002000230024002791F803C00CF0E0
:100420000F0591F803C00CF0100CBCF1000F03D0C5
:1004300091F802C04CEA050591F800C0BCF1000F2C
:1004400031D0146800202BE04FF0010C0CFA00F3BF
:10045000B1F800C00CEA03069E4220D183004FF0A1
:100460000F0C0CFA03F7BC4305FA03FC4CEA040436
:1004700091F803C0BCF1280F06D14FF0010C0CFA23
:1004800000FCC2F814C00AE091F803C0BCF1480FA8
:1004900005D14FF0010C0CFA00FCC2F810C0401C52
:1004A0000828D1D31460B1F800C0BCF1FF0F34DDCF
:1004B000546800202EE000F1080C4FF0010808FA03
:1004C0000CF3B1F800C00CEA03069E4221D1830070
:1004D0004FF00F0C0CFA03F7BC4305FA03FC4CEA8F
:1004E000040491F803C0BCF1280F05D100F1080CF9
:1004F00008FA0CF8C2F8148091F803C0BCF1480F58
:1005000007D100F1080C4FF0010808FA0CF8C2F806
:100510001080401C0828CED35460BDE8F0814FF60F
:10052000FF710180022181700421C1707047024671
:10053000002093680B400BB1012000E000207047C1
:100540000146886880B2704702460020D3680B409D
:100550000BB1012000E0002070470146C86880B25E
:10056000704701617047416170470AB1016100E065
:1005700041617047C16070474FF480320A43826125
:100580008161826182698269704702460020434B23
:1005900018684FF68073184040EA021008433F4B3A
:1005A000186070473E49C8617047F0B50A4600239D
:1005B00000240021002500F00046B6F1004F02D1D2
:1005C000364EF16901E0354E7168C0F3034583B2E0
:1005D00000F44016B6F5401F08D121F070612F4E8F
:1005E000766826F070662D4F7E6012E000F480166B
:1005F000B6F5801F06D1032606FA05F4A14341F0A3
:10060000706106E0460D360103FA06F6B14341F08B
:10061000706122B1460D360103FA06F6314300F04F
:100620000046B6F1004F02D11C4EF16101E01B4EB5
:100630007160F0BD30B500228B071C0F0F2303FA49
:1006400004F2164B08338C1053F824309343134CA8
:1006500008348D1044F8253023468C1053F824308C
:100660008C07240F00FA04F423430C4C08348D103B
:1006700044F8253030BD0A49DC310860704700007D
:1006800000080140000C014000100140001401402E
:1006900000180140001C0140002001400000014002
:1006A00000002042DF48006840F00100DD4908609A
:1006B00008464068DC490840DA4948600846006856
:1006C000DA490840D74908600846006820F48020CD
:1006D00008600846406820F4FE0048604FF41F00A0
:1006E00088607047CF49096821F48031CD4A116094
:1006F0001146096821F480211160B0F5803F03D0D4
:10070000B0F5802F0ED106E0C649096841F480316A
:10071000C44A116007E0C349096841F4A021C14AF5
:10072000116000E000BF00BF704710B50146002215
:10073000002300204A11012A02D1BA4C236806E0A6
:10074000022A02D1B74C236A01E0B64C636A01F079
:100750001F02012494401C400CB1012000E0002045
:1007600010BD38B5002000900024002500BF3120C6
:10077000FFF7DBFF05460098401C00900098B0F59D
:10078000A06F01D0002DF2D03120FFF7CEFF08B1CD
:10079000012400E00024204638BD01460020A14A83
:1007A000106820F0F80040EAC10010607047A049CE
:1007B00008607047024600209A4B586820F47C106D
:1007C00042EA01031843974B5860704798490866FE
:1007D000704701460020934A506820F00300084308
:1007E000506070478F48406800F00C007047014629
:1007F00000208C4A506820F0F00008435060704799
:1008000001460020874A506820F4E06008435060A9
:10081000704701460020834A506820F4605040EA47
:10082000C1005060704729B17E4A527A02437D4B25
:100830005A7204E07B4A527A82437A4B5A7270476A
:100840007B49D8310860704701460020754A5068DE
:1008500020F440400843506070470021714A203224
:100860001170704A82F82010012802D004280AD1A1
:1008700004E001216B4A2032117005E00521694A2C
:100880002032117000E000BF00BF70476949086066
:1008900070476449096A0143624A116270476549B9
:1008A00044390860704730B500210022002400233D
:1008B0005C4D6D6805F00C0121B1042905D00829B3
:1008C00023D105E05C4D056022E05B4D05601FE033
:1008D000544D6D6805F47012524D6D6805F4803406
:1008E000022505EB92421CB9544D554305600BE0BF
:1008F0004C4D6D6805F400351DB1504D55430560F4
:1009000002E04D4D5543056002E04B4D056000BFD0
:1009100000BF444D6D6805F0F0010909484D6B5C5E
:100920000568DD4045603F4D6D6805F4E061090AEA
:10093000434D6B5C4568DD4085603A4D6D6805F45C
:100940006051C90A3E4D6B5C4568DD40C560354D60
:100950006D6805F44041890B3A4D6B5CC568B5FB89
:10096000F3F5056130BD29B12E4A526902432D4B82
:100970005A6104E02B4A526982432A4B5A617047FC
:1009800029B1284A92690243264B9A6104E0254A1C
:1009900092698243234B9A61704729B1214AD269F7
:1009A0000243204BDA6104E01E4AD26982431D4BA8
:1009B000DA61704729B11B4AD2680243194BDA60E9
:1009C00004E0184AD2688243164BDA60704729B1B6
:1009D000144A12690243134B1A6104E0114A126966
:1009E0008243104B1A6170471249403908607047C2
:1009F0000F49C86470470B49C87170470948406A7D
:100A000040F0807007494862704701460020054A5F
:100A100092680A400AB1012000E0002070470149B5
:100A200088727047001002400000FFF8FFFFF6FEDA
:100A3000000042428004424200127A0000093D0058
:100A4000080000201800002010B50446FB4884422E
:100A500009D101218803FFF7ADFF00214FF4804049
:100A6000FFF7A8FF32E0F648844209D1012148048B
:100A7000FFF7ADFF00214FF40030FFF7A8FF25E09E
:100A8000F048844209D101218804FFF7A0FF00212A
:100A90004FF48020FFF79BFF18E0EB48844209D118
:100AA0000121C804FFF793FF00214FF40020FFF756
:100AB0008EFF0BE0E548844208D101210805FFF7CD
:100AC00086FF00214FF48010FFF781FF10BD2DE954
:100AD000F04786B005460E460024A24600BFA14658
:100AE0000027B08900B100BF2F462C8A4CF6FF705A
:100AF0000440F08804432C82AC894EF6F310044085
:100B0000B08831890843718908430443AC81AC8AB9
:100B10004FF6FF400440B0890443AC8201A8FFF7C0
:100B2000C2FEC648874202D1DDF810A001E0DDF820
:100B30000CA0A88900F4004040B10AEBCA0000EB09
:100B40000A1031684900B0FBF1F807E00AEBCA006F
:100B500000EB0A1031688900B0FBF1F86420B8FBA3
:100B6000F0F004012009642101FB1089A88900F438
:100B7000004040B1322000EBC900B0FBF1F000F0C2
:100B80000700044308E0322000EB09106421B0FBA9
:100B9000F1F000F00F0004432C8106B0BDE8F087AF
:100BA0004FF41651016000218180C18001810C2128
:100BB000418100218181704710B502460020108AD2
:100BC0004FF2FF0318400B884C8823438C88234343
:100BD000CC8823431843108210BD0021018041803E
:100BE0008180C180704721B1828942F400528281A4
:100BF00004E082894DF6FF731A4082817047F0B598
:100C00000346002400260025002040F66A17B9425A
:100C100000D100BF1846C1F3421401F01F0601279E
:100C200007FA06F5012C01D10C3004E0022C01D1A9
:100C3000103000E014301AB107682F43076002E05B
:100C40000768AF430760F0BD1AB1838A0B43838204
:100C500002E0838A8B4383827047028A4FF6F073E7
:100C60001A400282028A0A430282704782894FF246
:100C7000FF731A40828182890A438281704721B1C1
:100C8000828942F00202828104E082894FF6FD737C
:100C90001A4082817047028A4FF6DF731A4002823F
:100CA000028A0A430282704721B1028A42F48042DA
:100CB000028204E0028A4BF6FF731A4002827047F8
:100CC000C1F308028280704701468888C0F308009B
:100CD0007047818941F0010181817047028BD2B256
:100CE0000283028B42EA012202837047028B02F4E4
:100CF0007F420283028B0A430283704721B1828ABA
:100D000042F02002828204E0828A4FF6DF731A40AA
:100D10008282704721B1828A42F01002828204E00E
:100D2000828A4FF6EF731A408282704721B1828A1D
:100D300042F00802828204E0828A4FF6F7731A407A
:100D40008282704721B1828942F40042828103E0AD
:100D50008289C2F30E028281704721B1828A42F4F5
:100D60000062828204E0828A4FF2FF731A4082821C
:100D70007047828A4FF6FB731A408282828A0A4346
:100D80008282704721B1828A42F00202828204E0AC
:100D9000828A4FF6FD731A40828270470246002015
:100DA000B1F5007F00D100BF13880B400BB10120CB
:100DB00000E00020704701F40072B2F5007F00D11E
:100DC00000BFCA430280704770B50246002400236A
:100DD0000025002040F66A16B14200D100BFC1F3E1
:100DE000421501F01F03012606FA03F3012D02D17B
:100DF0009689334006E0022D02D1168A334001E085
:100E0000968A33400C12012606FA04F41688344000
:100E100013B10CB1012000E0002070BD10B500221C
:100E2000002340F66A14A14200D100BF0A12012437
:100E30009440A3B2DC43048010BD000000380140A0
:100E40000044004000480040004C0040005000407A
:100E500010B50446FA48844208D101214015FFF735
:100E6000A9FD00216015FFF7A5FD17E0F5488442B4
:100E700008D101210015FFF79DFD00212015FFF786
:100E800099FD0BE0F048844208D10121C803FFF727
:100E900091FD00214FF40040FFF78CFD10BD30B5EF
:100EA0000246002000235068E84C20400D790C6871
:100EB00044EA0524204350609068E54C2040D1E985
:100EC00002542C434D7944EA450420439060D06A93
:100ED00020F470000C7C641EE4B2234340EA03500B
:100EE000D06230BD00210160017141718160C1603B
:100EF00001210174704721B1826842F001028260D1
:100F000003E0826822F001028260704721B18268AA
:100F100042F48072826003E0826822F48072826010
:100F2000704710B50023CBB21AB144681C4344602B
:100F300002E044689C43446010BD816841F00801B0
:100F400081607047014600208A6802F008020AB1F9
:100F5000012000E000207047816841F004018160B9
:100F60007047014600208A6802F004020AB101209D
:100F700000E00020704721B1826842F4A002826044
:100F800003E0826822F4A0028260704701460020DC
:100F90008A6802F480020AB1012000E00020704754
:100FA00010B50A4600210023416821F46041531E18
:100FB00041EA4331416010BD21B1426842F4006210
:100FC000426003E0426822F4006242607047F0B57C
:100FD00004460D4600200021092D11DDE068A5F131
:100FE0000A0606EB4607072606FA07F18843A5F12D
:100FF0000A0606EB460603FA06F10843E0600CE039
:10100000206905EB4507072606FA07F1884305EB3B
:10101000450603FA06F108432061072A0FDA606BE0
:10102000561E06EB86071F2606FA07F18843561E52
:1010300006EB860605FA06F10843606322E00D2AF6
:101040000FDA206BD61F06EB86071F2606FA07F17C
:101050008843D61F06EB860605FA06F1084320638F
:1010600010E0E06AA2F10D0606EB86071F2606FADD
:1010700007F18843A2F10D0606EB860605FA06F194
:101080000843E062F0BD21B1826842F480128260C0
:1010900003E0826822F48012826070470146C86CC7
:1010A00080B2704766484C300068704721B1426892
:1010B00042F48062426003E0426822F4806242604F
:1010C000704721B1426842F48052426003E04268B6
:1010D00022F48052426070470A460021816821F460
:1010E000E04111438160704721B1826842F40042BF
:1010F000826003E0826822F400428260704721B17E
:10110000826842F40212826003E0826822F40212D2
:1011100082607047014600208A6802F400120AB11A
:10112000012000E000207047F0B50446154600207D
:1011300000220026092911DDE068A1F10A0707EB6A
:10114000470C072707FA0CF29043A1F10A0707EBB7
:10115000470703FA07F21043E0600CE0206901EB57
:10116000410C072707FA0CF2904301EB410703FA01
:1011700007F210432061A06BC0F30156EF1C06F18B
:10118000010CA7EB0C0707EB870C1F2707FA0CF2E3
:101190009043EF1C06F1010CA7EB0C0707EB870748
:1011A00001FA07F21043A063F0BD10B50A46002112
:1011B0000023816B21F44011531E41EA03518163E6
:1011C00010BD08B5002300930090009B0B440093D2
:1011D000009B1A6008BD08B50246002000900092EE
:1011E00001F12800009B184400900098006880B22C
:1011F00008BD0A4600214168164B19401143416061
:1012000070474162826270470A460021416821F0BE
:101210001F0111434160704740B109490831096815
:1012200041F40001064A0832116007E00449083120
:10123000096821F40001024A083211607047000079
:101240000024014000280140003C0140FFFEF0FF67
:10125000FDF7F1FFFFFD3FFF0246002013680B4042
:101260000BB1012000E000207047CA4302607047C4
:1012700070B502460020002300240B125568CEB240
:1012800005EA060415681D4015B10CB1012000E007
:10129000002070BD00220A12D34303607047000093
:1012A000016821F00101016000210160416081605D
:1012B000C1608C49884208D18A490839496841F09F
:1012C0000F01884A083A51608AE086491431884201
:1012D00008D184490839496841F0F001814A083A47
:1012E00051607DE07F492831884208D17D49083925
:1012F000496841F470617B4A083A516070E079496D
:101300003C31884208D177490839496841F4704135
:10131000744A083A516063E072495031884208D1FA
:1013200070490839496841F470216E4A083A5160A1
:1013300056E06C496431884208D16A4908394968E5
:1013400041F47001674A083A516049E065497831D3
:10135000884208D163490839496841F07061614A9F
:10136000083A51603CE06049884206D1011F096893
:1013700041F00F01021F116032E05B4914318842D5
:1013800008D15949091F096841F0F001564A121F56
:10139000116025E054492831884208D15249091F7B
:1013A000096841F47061504A121F116018E04E49FB
:1013B0003C31884208D14C49091F096841F4704109
:1013C000494A121F11600BE047495031884207D14A
:1013D0004549091F096841F47021434A121F1160F1
:1013E000704710B50022026847F6F0739A430C6A02
:1013F0008B6823430C6923434C6923438C69234343
:10140000CC6923434C6A23438C6A23431A4302600A
:10141000CB6843600B6883604B68C36010BD0021DC
:10142000016041608160C160016141618161C161B0
:10143000016241628162704721B1026842F001029B
:10144000026003E0026822F00102026070471AB1F4
:1014500003680B43036002E003688B43036070473B
:101460000146486880B2704701460020002201F022
:1014700080531BB11C4B083B1A6802E0194B083B18
:101480001A6802EA01030BB1012000E00020704756
:1014900000F0805119B11449091F086002E0114998
:1014A00008394860704701460020002201F080534F
:1014B0001BB10D4B083B1A6802E00A4B083B1A6847
:1014C00002EA01030BB1012000E00020704700F0A8
:1014D000805119B10449091F086002E00149083927
:1014E000486070470800024008040240014600209E
:1014F000FE4A106800F03800084310607047FB494E
:10150000096821F00801F94A116011460968014390
:1015100011607047F549096821F01001F34A116024
:1015200011460968014311607047F148EF4948606E
:10153000F04848607047EE48EC494860ED48486024
:101540007047EA48006940F08000E8490861704748
:10155000E648006940F08000E449086170470420D3
:10156000E249C96801F0010109B101200EE0DF493B
:10157000C96801F0040109B1022007E0DB49C9682C
:1015800001F0100109B1032000E00420704700B50C
:1015900002460423FFF7E3FF034603E0FFF7DFFF04
:1015A0000346521E012B01D1002AF7D102B90523AF
:1015B000184600BD30B5054604244FF43020FFF72F
:1015C000E6FF0446042C19D1C848006940F0020027
:1015D000C649086108464561006940F0400008615D
:1015E0004FF43020FFF7D3FF0446052C06D0BF4848
:1015F000006941F6FD710840BC490861204630BDD4
:1016000010B504244FF43020FFF7C1FF0446042C2A
:1016100018D1B648006940F00400B4490861084692
:10162000006940F0400008614FF43020FFF7AFFF41
:101630000446052C06D0AD48006941F6FB71084010
:10164000AA490861204610BD00B502460423FFF7F1
:1016500086FF034603E0FFF782FF0346521E012B7D
:1016600001D1002AF7D102B90523184600BD10B5F3
:1016700004244FF43020FFF7E7FF0446042C18D170
:101680009A48006940F004009849086108460069DA
:1016900040F0400008614FF43020FFF7D5FF0446CA
:1016A000052C06D09148006941F6FB7108408F492E
:1016B0000861204610BD00208C49C96901F0020173
:1016C00009B1012000E00020704730B5A5250424B1
:1016D000FFF7F1FF00B100254FF43020FFF757FF6F
:1016E0000446042C3AD18248804988608148886049
:1016F0000846006940F0200008610846006940F093
:10170000400008614FF43020FFF741FF0446042CED
:101710001BD17648006941F6DF71084073490861C2
:101720000846006940F01000086173480580E00237
:10173000FFF72DFF0446052C10D06C48006941F6D8
:10174000EF7108406949086108E0052C06D0674838
:10175000006941F6EF71084064490861204630BDD8
:1017600078B506460D46042400200090E002FFF7FD
:101770000EFF0446042C28D15C48006940F00100AB
:101780005A4908613580E002FFF701FF0446042C46
:1017900012D1B01C0090280C00990880E002FFF7DD
:1017A000F6FE0446052C10D05048006941F6FE7143
:1017B00008404E49086108E0052C06D04B480069F6
:1017C00041F6FE71084049490861204678BD70B570
:1017D00005460E460424E002FFF7D9FE0446042C19
:1017E00013D14248006940F00100404908612E8051
:1017F000E002FFF7CCFE0446052C06D03B4800690A
:1018000041F6FE71084039490861204670BD70B547
:1018100005460E460424E002FFF7B9FE0446042CF8
:1018200017D13348314988603248886008460069DA
:1018300040F0100008612E80E002FFF7A8FE044689
:10184000052C06D02948006941F6EF710840274968
:101850000861204670BD2DE9F04304464FF6FF763F
:101860003746B046B1460425E443E6B2C4F3072741
:10187000C4F307484FEA1469E802FFF788FE0546FB
:10188000042D4AD11A48194988601A4888600846C8
:10189000006940F010000861FF2E06D0164808309D
:1018A0000680E802FFF773FE0546042D08D1FF2FDE
:1018B00006D011480A300780E802FFF768FE0546A7
:1018C000042D0AD1B8F1FF0F07D00B480C30A0F857
:1018D0000080E802FFF75BFE0546042D14D1B9F144
:1018E000FF0F11D004480E3008E000000020024035
:1018F00023016745AB89EFCD00F8FF1FA0F80090EA
:10190000E802FFF744FE0546052D06D06848006949
:1019100041F6EF710840664908612846BDE8F0834A
:1019200030B5054604244FF43020FFF730FE04465E
:10193000042C41D15F485E4988605F488860084652
:10194000006940F0200008610846006940F040004E
:1019500008614FF43020FFF71AFE0446042C22D110
:101960005348006941F6DF71084051490861084653
:10197000006940F0100008611DB100204F49088047
:1019800002E0A5204D4908804FF43020FFF7FFFD0D
:101990000446052C10D04648006941F6EF71084016
:1019A0004349086108E0052C06D04148006941F62A
:1019B000DF7108403E490861204630BDF0B505465C
:1019C0000E46174604243B48394988603A488860E7
:1019D000E002FFF7DCFD0446042C19D1344800690D
:1019E00040F010003249086147F0F80030432843C6
:1019F0003249891C0880E002FFF7C9FD0446052C26
:101A000006D02B48006941F6EF710840284908616B
:101A10002046F0BD2648C069800870472448006A07
:101A2000704700202249096801F0200109B1012016
:101A300000E00020704729B11D4A126902431C4B87
:101A40001A6104E01A4A12698243194B1A617047FD
:101A500001460020012908D1154AD26902F001028D
:101A60000AB1012008E0002006E0114AD2680A40CD
:101A70000AB1012000E0002070470D49C86070479E
:101A800004200B49C96801F0010109B101200EE0F1
:101A90000749C96801F0040109B1022007E00449BF
:101AA000C96801F0100109B1032000E0042070476B
:101AB0000020024023016745AB89EFCD00F8FF1FEE
:101AC00008B5002000905948006840F010005749C0
:101AD00008600846006820F00300086008460068B7
:101AE00040F002000860524840685149486008468A
:101AF000406848600846406840F480604860084696
:101B0000406820F47C1048600846406840F460104B
:101B100048600846006840F08070086000BF444894
:101B2000006800F000700028F9D04148406820F0BB
:101B300003003F4948600846406840F002004860A2
:101B400000BF3B48406800F00C000828F9D108BDF0
:101B500010B5FFF7B5FF10BD10B53548006840F06F
:101B6000010033490860084640683249084030495E
:101B7000486008460068304908402D49086008461A
:101B8000006820F4802008600846406820F4FE00C9
:101B900048604FF41F008860FFF7DAFF10BD10B5F2
:101BA000002100200022224B5B6803F00C0121B1D0
:101BB000042906D0082928D107E0204B204C2360B7
:101BC00027E01E4B1E4C236023E0194B5B6803F497
:101BD0007010174B5B6803F48032022303EB9040D4
:101BE00022B9184B4343164C23600DE0104B5B6841
:101BF00003F4003323B1134B4343114C236003E040
:101C00000E4B43430E4C236003E00C4B0C4C236003
:101C100000BF00BF064B5B68C3F303130A4CE15CD3
:101C2000074B1B68CB40064C236010BD00200240D0
:101C3000001002400000FFF8FFFFF6FE00127A00DD
:101C40001C00002000093D002000002006488047BD
:101C500006480047FEE7FEE7FEE7FEE7FEE7FEE791
:101C6000FEE7FEE7FEE7FEE7591B0008ED0000086F
:101C700010B501210420FEF783FE01210820FEF7A4
:101C80007FFE01211020FEF77BFE01212020FEF7C0
:101C900077FE01214020FEF773FE01210846FEF782
:101CA0006FFE03207A4988701020C87020200880B9
:101CB0007848FEF7A9FB4020754908807548FEF773
:101CC000A3FB012240217348FEF74FFC102070490E
:101CD00008807048FEF798FB012210216D48FEF73E
:101CE00044FC01206A4908806B48FEF78DFB012106
:101CF0006948FEF736FC18206549C8704FF400703B
:101D000008806448FEF780FB042061490880614830
:101D1000FEF77AFB04205E49C870000208805D4827
:101D2000FEF772FB08205A4908805A48FEF76CFB00
:101D300048205749C870402008805848FEF764FB87
:101D400048205349C8701C2008805548FEF75CFBAA
:101D500003204F4988701020C870000108804F4848
:101D6000FEF752FB03204A4988701020C8704001DA
:101D700008804A48FEF748FB032045498870102038
:101D8000C870000108804348FEF73EFB48204049E8
:101D9000C870802008803F48FEF736FB48203C4949
:101DA000C870202008803D48FEF72EFB48203849A7
:101DB000C870102008803948FEF726FB48203449B7
:101DC000C870012008803748FEF71EFB10BD70B5B3
:101DD00004460D46022D37DB012C10D120212D4861
:101DE000FEF7B2FB28B9012220212A48FEF7BDFBED
:101DF0002AE0002220212748FEF7B7FB24E0022C2E
:101E000010D140212348FEF79FFB28B90122402131
:101E10002048FEF7AAFB17E0002240211D48FEF7EC
:101E2000A4FB11E0032C0FD110211A48FEF78CFB04
:101E300028B9012210211748FEF797FB04E0002281
:101E400010211448FEF791FB70BD002106E000222E
:101E500000E0521C144B9A42FBDB491C8142F6D332
:101E60007047002106E0002200E0521CB2F5FA5F44
:101E7000FBDB491C8142F6D37047002105E00022BC
:101E800000E0521C082AFCDB491C8142F7D3704752
:101E90003000002000080140001401400010014003
:101EA00000180140000C014000127A0070B5054690
:101EB0000C460520FFF7D5FF25B18021F748FEF736
:101EC00050FB03E08021F548FEF74DFB04F0800055
:101ED00020B10221F148FEF744FB03E00221EF4864
:101EE000FEF741FB04F0400020B10421EB48FEF76F
:101EF00038FB03E00421E948FEF735FB04F020003D
:101F000020B10821E548FEF72CFB03E00821E34857
:101F1000FEF729FB04F0100020B11021DF48FEF786
:101F200020FB03E01021DD48FEF71DFB2021DB48EC
:101F3000FEF717FB2021D948FEF715FB04F0080037
:101F400020B10221D548FEF70CFB03E00221D34863
:101F5000FEF709FB04F0040020B10421CF48FEF78E
:101F600000FB03E00421CD48FEF7FDFA04F0020077
:101F700020B10821C948FEF7F4FA03E00821C74858
:101F8000FEF7F1FA04F0010020B11021C348FEF77A
:101F9000E8FA03E01021C148FEF7E5FA2021BF4826
:101FA000FEF7DFFA2021BD48FEF7DDFA70BD08B567
:101FB00001212020FEF7E4FC10208DF80300802092
:101FC000ADF8000003208DF802006946B348FEF723
:101FD0001BFA4020ADF800006946B048FEF714FA3D
:101FE0002020ADF800006946AC48FEF70DFA02204B
:101FF000ADF800006946A948FEF706FA0420ADF8DE
:1020000000006946A548FEF7FFF90820ADF800007A
:102010006946A248FEF7F8F91020ADF800006946BD
:102020009E48FEF7F1F908BD10B5FFF7C0FF3C2050
:10203000FFF717FF40219948FEF795FA10219748BE
:10204000FEF791FA08219548FEF78BFA0421934890
:10205000FEF789FA02219148FEF785FA80218F4820
:10206000FEF781FA20218D48FEF77BFA20218B486C
:10207000FEF779FA02210020FFF718FF282100203F
:10208000FFF714FF0C210020FFF710FF06210020AE
:10209000FFF70CFF01210020FFF708FF10BD70B50E
:1020A00006460C46154636B1012E0BD0022E10D036
:1020B000032E1CD114E004F18000C1B20020FFF710
:1020C000F5FE14E004F1C000C1B20020FFF7EEFEFF
:1020D0000DE004F19000C1B20020FFF7E7FE06E03A
:1020E00004F1D000C1B20020FFF7E0FE00BF00BF46
:1020F00004E029780120FFF7D9FE6D1C287800281C
:10210000F7D170BD2DE9FF4180460D4614460027EA
:10211000012600200390009001900290B8F1000F7A
:1021200009D0B8F1010F0DD0B8F1020F11D0B8F1FC
:10213000030F1CD114E005F18000C1B20020FFF7AD
:10214000B5FE14E005F1C000C1B20020FFF7AEFEFD
:102150000DE005F19000C1B20020FFF7A7FE06E0F8
:1021600005F1D000C1B20020FFF7A0FE00BF00BF04
:102170000A2C0AD230210120FFF798FE04F130002A
:10218000C1B20220FFF792FE30E0039413E00A2070
:10219000B4FBF0F100FB114003900398C0B20DF8BE
:1021A00007000A210398B0FBF1F003900A20B4FB6A
:1021B000F0F4761C7F1C0A2CE9D20A20B4FBF0F163
:1021C00000FB114003900398C0B20DF8070008E02F
:1021D0001DF806003030C1B20120FFF767FE06B9D6
:1021E00003E0301EA6F10106F2D100BFBDE8FF8179
:1021F00010B501210020FFF759FE10BD70B504464F
:102200000D460E210120FFF751FE70BD10B5244888
:1022100000780A280AD123A200210846FFF73FFFD1
:1022200025A202210120FFF73AFF0DE01C480078AB
:102230000B2809D123A200210846FFF730FF25A271
:1022400002210120FFF72BFF10BD10B524A20021B1
:102250000846FFF724FF19A200210120FFF71FFF06
:1022600022A208210120FFF71AFF10BD10B521A2FC
:1022700000210846FFF713FF22A200210120FFF7EB
:102280000EFF22A208210120FFF709FF10BD10B5A3
:102290000CA200210846FFF702FF10BD0014014008
:1022A000800A002044414E47204B4554204E4F4960
:1022B000202E2E2E000000003D3D3E204D41535467
:1022C0004552000043484F204B4554204E4F492073
:1022D0002E2E2E003D3D3E534C4156450000000041
:1022E00048656C6C6F20576F726C6400534C41569C
:1022F00045000000434845434B5F434F4E4E454326
:102300005400000053454E4400000000474554204F
:102310000000000070B501F0AAFD01F0AEFF044618
:102320006420B4FBF0F0C5B26420B4FBF0F100FB14
:102330001146FEA201210020FFF7B1FE2A46052129
:102340000020FFF7DFFEFDA207210020FFF7A7FE18
:10235000324608210020FFF7D5FEF9A20B2100200C
:10236000FFF79DFEF7A200210120FFF798FEF74836
:1023700090F9062005210120FFF7C4FEF4A20721F1
:102380000120FFF78CFEF14890F90520082101207B
:10239000FFF7B8FEEEA20A210120FFF780FEEB480E
:1023A00090F904200B210120FFF7ACFE70BD10B5A1
:1023B00001F05DFDE54890F9062005210020FFF7BA
:1023C000A1FEE3A207210020FFF769FEDF4890F994
:1023D000052008210020FFF795FEDDA20A2100203C
:1023E000FFF75DFED94890F904200B210020FFF78C
:1023F00089FED64890F9082005210120FFF782FECA
:10240000D3A207210120FFF74AFED04890F9092006
:1024100008210120FFF776FECDA20A210120FFF757
:102420003EFECA48B0F90A200B210120FFF76AFEE0
:1024300010BD10B5C7A202210020FFF730FEC6A2D2
:1024400006210020FFF72BFEC4A20B210020FFF77E
:1024500026FEC34800780B282CD1C14890F84800CC
:1024600028B9C0A202210120FFF719FE04E0BEA294
:1024700002210120FFF713FEB94890F8490028B95E
:10248000B8A206210120FFF70AFE04E0B6A2062149
:102490000120FFF704FEB24890F84A0028B9B1A223
:1024A0000B210120FFF7FBFD04E0AFA20B2101206F
:1024B000FFF7F5FDAA4800780A282CD1A84890F823
:1024C000240028B9A7A202210120FFF7E8FD04E0BB
:1024D000A5A202210120FFF7E2FDA14890F8250006
:1024E00028B9A0A206210120FFF7D9FD04E09EA291
:1024F00006210120FFF7D3FD994890F8260028B95E
:1025000098A20B210120FFF7CAFD04E096A20B213F
:102510000120FFF7C4FD10BD70B501F0A8FC4021FB
:102520009248FEF704F8044680219048FDF7FFFF2B
:1025300005468B4800780B287DD18948C079002852
:1025400050D1824890F9062000210846FFF7DAFDB5
:102550007FA202210020FFF7A2FD7C4890F9052010
:1025600003210020FFF7CEFD784890F908200821CC
:102570000020FFF7C7FD76A20A210020FFF78FFD9C
:10258000724890F909200B210020FFF7BBFD70A2D3
:102590000D210020FFF783FD6C48B0F90A00A0F57B
:1025A000FA620E210020FFF7ADFD6D4890F83E0065
:1025B000022812D06A4890F83E00012803D16CA28C
:1025C0000021FFF76CFD664890F83E0020B96DA22F
:1025D00000210120FFF763FD04E06FA2002101202C
:1025E000FFF75DFD5E48C079012861D1574890F939
:1025F000062000210846FFF785FD55A20221002094
:10260000FFF74DFD514890F9052003210020FFF709
:1026100079FD4E4890F9082008210020FFF772FD4F
:102620004BA20A210020FFF73AFD484890F9092003
:102630000B21002000E03BE0FFF764FD44A20D21E8
:102640000020FFF72CFD4148B0F90A00A0F5FA621E
:102650000E210020FFF756FD414890F83E00022869
:1026600021D00CB9012000E00020012D01D1012171
:1026700000E00021084028B14CA200210120FFF712
:102680000EFD15E0012C01D1012000E000200DB964
:10269000012100E00021084050B149A200210120A1
:1026A000FFF7FDFC04E03CA200210120FFF7F7FC4E
:1026B0002B4800780A2836D12948C079002833D120
:1026C000224890F9062000210846FFF71BFD20A2B2
:1026D00002210020FFF7E3FC1C4890F905200321AC
:1026E0000020FFF70FFD194890F90820082100206D
:1026F000FFF708FD16A20A210020FFF7D0FC1348BF
:1027000090F909200B210020FFF7FCFC10A20D21FD
:102710000020FFF7C4FC0D48B0F90A00A0F5FA62EA
:102720000E21002056E0D5E083E000004749414FEC
:102730002054494550205155414E47002E0000007D
:102740005600000054494D450000000004090020D7
:102750003A000000524600005258410052584400CE
:10276000800A0020485554004E48410000100140A6
:102770004E48414E2058554E472044554F4E472B0A
:10278000000000004E48414E2058554E4720414D14
:10279000202D2020000000004B484F4E4720434F83
:1027A0002058554E47202020000000004755492062
:1027B00058554E472044554F4E47202B00000000EF
:1027C0004755492058554E4720414D202D20202067
:1027D00000000000FFF796FCFE48807E022823D010
:1027E0000CB9012000E00020012D01D1012100E001
:1027F0000021084030B1AFF24C0200210120FFF768
:102800004EFC16E0012C01D1012000E000200DB9A2
:10281000012100E00021084058B1AFF25C02002124
:102820000120FFF73CFC04E0EBA200210120FFF7B0
:1028300036FCE848C079012852D1EB4890F90620CF
:1028400000210846FFF75EFCAFF2FC0202210020E7
:10285000FFF725FCE44890F9052003210020FFF74D
:1028600051FCE14890F9082008210020FFF74AFCBC
:10287000AFF224120A210020FFF711FCDA4890F988
:1028800009200B210020FFF73DFCAFF23C120D2187
:102890000020FFF704FCD448B0F90A00A0F5FA6262
:1028A0000E210020FFF72EFCCA48807E022812D09D
:1028B000C848807E012804D1AFF24C120021FFF7F6
:1028C000EEFBC448807E28B9AFF2481200210120F7
:1028D000FFF7E5FB04E0C5A200210120FFF7DFFBC5
:1028E00070BD10B5BB4800780B280ED1C3A20321E0
:1028F0000020FFF7D4FBC3A200210120FFF7CFFB8C
:1029000005220C210020FFF7FDFBB24800780A28C1
:102910000ED1BAA200210846FFF7C1FBB9A20021DF
:102920000120FFF7BCFB052208210020FFF7EAFB8E
:1029300010BD10B5A74800780B280FD1B4A2022112
:102940000020FFF7ACFBB5A202210120FFF7A7FB97
:10295000A04882780A210120FFF7D4FB9D48007827
:102960000A280FD1AAA202210020FFF798FBABA2F0
:1029700002210120FFF793FB964882780A2101206B
:10298000FFF7C0FB10BD10B5924800780B2809D1A5
:10299000A5A200210846FFF782FBA7A20021012083
:1029A000FFF77DFB8B4800780A2809D19EA2002101
:1029B0000846FFF774FBA0A200210120FFF76FFB80
:1029C00010BD10B5834800780B2809D19EA20021C4
:1029D0000846FFF764FBA0A200210120FFF75FFB80
:1029E0007C4800780A2809D197A200210846FFF701
:1029F00056FB99A200210120FFF751FB10BD10B535
:102A000099A200210846FFF74AFB10BD10B501F05E
:102A10002EFA02F0ADF9012822D102F011FA9648FF
:102A20000078401C9449087008460078032801DDAE
:102A300001200870904802780E210020FFF762FB09
:102A4000FFF7D6FB8C480078012809D18BA2002122
:102A50000846FFF724FB8DA200210120FFF71FFB92
:102A600002F086F9022801D102F0EAF982480078E2
:102A7000012804D0022833D003287CD15AE2022056
:102A800002F0E2F9012812D102F0DAF9FFF7B0FB07
:102A90007AA200210846FFF702FB81A20021012053
:102AA000FFF7FDFA0A204B49087001F027FC0020CF
:102AB00002F0CAF9012812D102F0C2F9FFF798FB1F
:102AC0006EA200210846FFF7EAFA7AA2002101204F
:102AD000FFF7E5FA0B203F49087001F00FFC49E2CF
:102AE00078A200210846FFF7DAFA7748007828B97B
:102AF000AFF2B03200210120FFF7D1FA3A4890F945
:102B0000062005210020FFF7FDFAAFF2BC320721B5
:102B10000020FFF7C4FA344890F90520082100206E
:102B2000FFF7F0FAAFF2D8320A210020FFF7B7FA28
:102B30002D4890F904200B210020FFF7E3FA2A48E2
:102B400090F9082005210120FFF7DCFAAFF20042DE
:102B500007210120FFF7A3FA234890F90920082153
:102B60000120FFF7CFFAAFF218420A210120FFF748
:102B700096FA1D4800E0FCE1B0F90A0002460B217C
:102B80000120FFF7BFFA012002F05EF901280ED103
:102B900002F056F94C480078401C4B490870084632
:102BA0000078062801DD01200870FFF721FB464868
:102BB000007807280CD2DFE800F00B04B7E9FDFC31
:102BC000FB0042A200210120FFF769FA02207FE00A
:102BD000ADE10000800A00204B484F4E4720434F94
:102BE0002058554E47202000040900204B484F4EE6
:102BF0004720434F2058554E47000000534F204C6C
:102C0000414E00004D4154204B4554204E4F54003E
:102C10004D4154204B4554204E4F4900534F204CBA
:102C2000414E3A20000000004C4F492058554E4775
:102C300020412043414F00002020202058554E477E
:102C400020422043414F00004C4F49205048414E04
:102C500020484F490000000054494E20484945553E
:102C60002052454C415900002043414920444154E1
:102C7000204D4F44452020004000002020204348A4
:102C80004F4E204D4F44452020000000204D415321
:102C900054455220202020534C415645000000004E
:102CA000204D415354455220202020202020202018
:102CB0000000000020202020202020202020534C35
:102CC0004156450053455400410000204800000093
:102CD00002F0BAF8012810D102F0B2F8A6488079C3
:102CE000401C41B2A448817190F90600182802DB0B
:102CF0000021A148817101F073F8002002F0A4F8CE
:102D0000012810D102F09CF89B488079401E41B206
:102D10009948817190F90600002802DC1721964835
:102D2000817101F05DF803E194A200210120FFF719
:102D3000B6F9022002F088F8012810D102F080F8DC
:102D40008D484079401C41B28B48417190F9050093
:102D50003C2802DB00218848417101F041F8002045
:102D600002F072F8012810D102F06AF88248407926
:102D7000401E41B28048417190F90500002802DCF4
:102D80003B217D48417101F02BF8D1E07CA200216C
:102D90000120FFF784F9022002F056F8012814D12F
:102DA00002F04EF874480079401C40B2724902E0CB
:102DB00086E053E020E00871084690F904003C28C2
:102DC00001DB0020087101F00BF8002002F03CF854
:102DD000012810D102F034F867480079401E40B253
:102DE00065490871084690F90400002801DC3B2081
:102DF000087100F0F5FF9BE062A200210120FFF7BF
:102E00004EF9022002F020F8012810D102F018F843
:102E10005948007A401C41B25748017290F90800A5
:102E20001F2802DD00215448017200F0D9FF002064
:102E300002F00AF8012810D102F002F84E48007A98
:102E4000401E41B24C48017290F90800002802DC93
:102E50001F214948017200F0C3FF69E04AA2002126
:102E60000120FFF71CF9022001F0EEFF012810D12C
:102E700001F0E6FF4048407A401C41B23E484172B2
:102E800090F909000C2802DD01213B48417200F055
:102E9000A7FF002001F0D8FF012810D101F0D0FFDA
:102EA0003548407A401E41B23348417290F90900DA
:102EB000002802DC0C213048417200F091FF37E01D
:102EC00032A200210120FFF7EAF8022001F0BCFF46
:102ED000012813D101F0B4FF27484089401C01B2FA
:102EE00025484181B0F90A0040F63401884203DBED
:102EF0004FF4FA612048418100F072FF002001F098
:102F0000A3FF012812D101F09BFF1B484089401EFE
:102F100001B219484181B0F90A00B0F5FA6F03DC3B
:102F200040F634011448418100F05AFF00E000BF30
:102F300000BF1FE0AFF2283202210020FFF7AFF8F8
:102F4000AFF2283202210120FFF7A9F81048827859
:102F50000A210120FFF7D6F8012001F075FF0128B2
:102F600006D101F06DFF00200949887001F0C6F913
:102F700000E000BF00BF10BD040900204D4E00005E
:102F800053000000440000004D54000059000000B0
:102F9000800A002070B504460D46E1B2FB48FDF7FB
:102FA0008FFE00BF4021F948FDF7F8FE0028F9D058
:102FB000204670BD10B501218803FDF7E1FC4FF4F8
:102FC000E130F349086000208880C880088188814A
:102FD0000C204881EF48FDF77AFD0121ED48FDF70F
:102FE00002FE2021EB48FDF7E6FE40F22551E948BC
:102FF000FDF7E1FE012240F22551E648FDF7FFFD15
:1030000001224FF4B071E348FDF7F9FD2520E249B4
:10301000087001204870002088700120C8700846A0
:10302000FDF729F910BD10B501210420FDF7A8FC1A
:1030300001214804FDF7B1FC0220D8490880102086
:10304000C87003208870D648FDF7DEF90420D34904
:1030500008801820C87003208870D148FDF7D4F983
:103060000820CE4908800420C870CD48FDF7CCF96F
:103070004FF41650C649086000208880C880088137
:1030800088810C204881C148FDF721FD0121BF48FE
:10309000FDF7A9FD2021BD48FDF78DFE40F2255129
:1030A000BA48FDF788FE012240F22551B748FDF7E6
:1030B000A6FD01224FF4B071B448FDF7A0FD262013
:1030C000B549087001204870002088700120C87040
:1030D0000846FDF7D0F800220221B148FDF745FA75
:1030E00010BD10B5044601218804FDF756FCA84820
:1030F00004600020A6498880C880088188810C204F
:103100004881A848FDF7E3FC0121A648FDF76BFDC7
:103110002021A448FDF74FFE40F22551A148FDF7BC
:103120004AFE012240F225519E48FDF768FD01222A
:103130004FF4B0719B48FDF762FD27209649087057
:1031400001204870002088700120C8700846FDF7F3
:1031500092F810BD70B504460D46012C0BD12946DE
:103160008C48FDF7ADFD00BF40218A48FDF716FEF3
:103170000028F9D01AE0022C0BD129468348FDF72C
:103180009FFD00BF40218148FDF708FE0028F9D0CF
:103190000CE0032C0AD129468248FDF791FD00BFBF
:1031A00040218048FDF7FAFD0028F9D070BD2DE9D7
:1031B000F04107460D461646012F04D0022F14D0C9
:1031C000032F36D123E000240CE000BF802171489A
:1031D000FDF7E4FD0028F9D0295D6E48FDF770FD8C
:1031E000601CC4B2B442F0DB24E000240CE000BF59
:1031F00080216648FDF7D2FD0028F9D0295D63489B
:10320000FDF75EFD601CC4B2B442F0DB12E00024A6
:103210000CE000BF80216348FDF7C0FD0028F9D015
:10322000295D6048FDF74CFD601CC4B2B442F0DB80
:1032300000E000BF00BFBDE8F0810FB438B5012148
:10324000C82002F0B0FD0546C821284602F099FDCD
:1032500005A800902846009A049903F0EFF800288A
:1032600008DD284602F098FDC4B222462946012016
:10327000FFF79DFF00200090284603F04BFD38BC6F
:103280005DF814FB30B5A9B00546012D04D0022D20
:1032900022D0032D78D157E04348007801281AD175
:1032A000002041490870084644882246083101A898
:1032B00002F04EFD00203C49488001F1FA0301F57F
:1032C000D072214601A801F051FB012802D13649F4
:1032D00081F8F80000BF76E034480078012832D148
:1032E000002032490870488800EBD0714910A0EBEB
:1032F000410121B12D484088401E2C4948802B486F
:1033000044884088294988802246083101A802F073
:103310001FFD02210320FEF75AFD2448418824A006
:10332000FFF78BFF00202149488001F1FA0301F5E6
:10333000D072214601A801F019FB012802D11B49D6
:1033400081F8F80000BF3EE01D48007801281AD13E
:1033500000201B490870084644882246083101A80D
:1033600002F0F6FC00201649488001F1FA0301F54D
:10337000D072214601A801F0F9FA012802D11049C2
:1033800081F8F80000BF1EE01CE00000004400408F
:10339000A8090020003801403C0000203000002037
:1033A0000008014000480040420000202A0300209D
:1033B0006C656E677468202564200D0A00000000AB
:1033C0001206002000BF00BF29B030BD2DE9F0413A
:1033D00007460C461546012F04D0022F14D0032FA8
:1033E00036D123E000260CE0A15D6948FDF768FCBA
:1033F00000BF40216648FDF7D1FC0028F9D0701CC1
:10340000C6B2AE42F0DB24E000260CE0A15D6148CC
:10341000FDF756FC00BF40215E48FDF7BFFC0028C9
:10342000F9D0701CC6B2AE42F0DB12E000260CE010
:10343000A15D5948FDF744FC00BF40215648FDF707
:10344000ADFC0028F9D0701CC6B2AE42F0DB00E043
:1034500000BF00BFBDE8F08170B504460D461646BA
:10346000012C04D0022C25D0032C69D145E04B4B14
:10347000DA1D3146284601F01DFB00B970BD0D2153
:10348000474880F8F8110A22B0F8F211491C00F5FB
:10349000FC7042544248B0F8F201801C81B24048AE
:1034A000A0F8F21190F8F22100F5FC710120FFF76D
:1034B0008DFF46E03B4BDA1D3146284601F0FAFA13
:1034C00000B9DBE70D21384880F8F8110A22B0F87E
:1034D000F211491C00F5FC7042543348B0F8F20177
:1034E000801C81B23048A0F8F21190F8F22100F56A
:1034F000FC710220FFF76AFF23E02C4BDA1D3146F6
:10350000284601F0D7FA00B9B8E70D21284880F81D
:10351000F8110A22B0F8F211491C00F5FC7042546F
:103520002348B0F8F201801C81B22148A0F8F211C2
:1035300090F8F22100F5FC710320FFF747FF00E04F
:1035400000BF00BF00BF99E710B540F2D24119A0FB
:10355000FFF773FE10BD10B5194A1A4B1AA0FFF7FA
:103560006CFE174A174B1CA0FFF767FE10BD10B585
:1035700040F2D2411CA0FFF760FE40F2D2411DA0F4
:10358000FFF75BFE40F2D2411EA0FFF756FE10BDD2
:103590000038014000440040004800403402002050
:1035A000420000201C0500202A03002004080020FF
:1035B00012060020646563202564200D0A000000C7
:1035C000F38E53742497BF3F666C6F61743120256E
:1035D00066200D0A00000000666C6F6174322025C1
:1035E0002E3266200D0A000068657861312025784A
:1035F000200D0A0068657861322025303478200D6E
:103600000A00000068657861332025307825303461
:1036100078200D0A0000000001460A2091FBF0F21C
:1036200000FB12100A2291FBF2F240EA0210C0B233
:103630007047014601F00F000A1102EB820200EB15
:103640004200C0B2704701460A1102EB82025000EC
:1036500001F00F020244D0B2704701460A2091FBEC
:10366000F0F0C2B202EB8200A1EB4000C3B243EA29
:103670000210C0B2704703468B4201DA0846704719
:10368000934201DD1046FAE71846F8E703468B42FD
:1036900001DA08467047934201DD1046FAE7184602
:1036A000F8E708B501210820FDF76AF903208DF835
:1036B000020010208DF803004FF44060ADF80000C8
:1036C0006946FE48FCF7A0FE08BD08B501210820A8
:1036D000FDF756F903208DF8020010208DF8030045
:1036E000C001ADF800006946F448FCF78DFE08BD46
:1036F00008B501210820FDF743F903208DF80200E9
:1037000004208DF803004002ADF800006946EB4844
:10371000FCF77AFE08BD10B50122D102E748FCF79C
:1037200024FF0520FEF7A9FB01229102E348FCF7E4
:103730001CFF0520FEF7A1FB00224FF40061DF48CB
:10374000FCF713FF0520FEF798FB00224FF4806181
:10375000DA48FCF70AFF0520FEF78FFB10BD10B515
:1037600000224FF40061D548FCF7FFFE0520FEF76C
:1037700084FB01229102D148FCF7F7FE0520FEF7F9
:103780007CFB0122D102CD48FCF7EFFE0520FEF7BD
:1037900074FB01229102C948FCF7E7FE0520FEF701
:1037A0006CFB10BD10B5FFF7A3FF4FF40061C348D9
:1037B000FCF7BDFE044601229102C048FCF7D5FE8D
:1037C0000520FEF75AFB00224FF48061BB48FCF74E
:1037D000CCFE0520FEF751FBFFF777FF204610BD1A
:1037E00070B50446002528E004F0800040B10122B5
:1037F000D102B248FCF7B9FE0520FEF73EFB08E017
:1038000000224FF40061AD48FCF7AFFE0520FEF743
:1038100034FB6006040E01229102A848FCF7A5FEC5
:103820000520FEF72AFB00224FF48061A348FCF735
:103830009CFE0520FEF721FB6D1C082DD4DBFFF755
:10384000B1FF70BD10B50122D1029C48FCF78DFE7E
:10385000012291029948FCF788FE0520FEF70DFB36
:1038600000224FF480619548FCF77FFE0520FEF7AB
:1038700004FB10BD2DE9F041FFF73AFF00241AE0E8
:103880004FF400618D48FCF752FE40EA4500C5B296
:10389000012291028948FCF768FE0520FEF7EDFA47
:1038A00000224FF480618548FCF75FFE0520FEF79B
:1038B000E4FA601CC4B2082CE2DBFFF706FFFFF756
:1038C000C1FFFFF715FF00241AE04FF400617B48A9
:1038D000FCF72DFE40EA4600C6B20122910277486D
:1038E000FCF743FE0520FEF7C8FA00224FF4806182
:1038F0007248FCF73AFE0520FEF7BFFA601CC4B21E
:10390000082CE2DBFFF79EFFFFF7DFFE45EA062704
:103910003846BDE8F08110B500224FF400616748D9
:10392000FCF723FE012291026448FCF71EFE0520ED
:10393000FEF7A3FA00224FF480616048FCF715FE01
:103940000520FEF79AFA10BD2DE9F04106460F4614
:10395000FFF7CEFE4FF000082AE000241AE04FF4F3
:1039600000615648FCF7E3FD40EA4500C5B201227C
:1039700091025248FCF7F9FD0520FEF77EFA00227D
:103980004FF480614D48FCF7F0FD0520FEF775FA15
:10399000601CC4B2082CE2DB06F80850FFF795FE65
:1039A000FFF7B9FFFFF7A4FE08F1010000F0FF08E0
:1039B000781E4045D1DC00241AE04FF400613F48F6
:1039C000FCF7B5FD40EA4500C5B2012291023B4833
:1039D000FCF7CBFD0520FEF750FA00224FF4806182
:1039E0003648FCF7C2FD0520FEF747FA601CC4B25A
:1039F000082CE2DB781E3554FFF724FFFFF765FE45
:103A0000BDE8F08170B504460D461646FFF783FE0B
:103A1000002141EA4401C8B2FFF7E2FE28B9284676
:103A2000FFF7DEFE08B9FFF79AFEFFF774FE0121EB
:103A300001EB4401C8B2FFF7D3FE20B9FFF71AFF2C
:103A40003070FFF78CFE70BD70B504460D4616460B
:103A5000FFF761FE002141EA4401C8B2FFF7C0FE52
:103A600048B92846FFF7BCFE28B93078FFF7B8FE02
:103A700008B9FFF774FE70BD2DE9F04104460D460C
:103A800016461F46FFF747FE002141EA4401C8B22F
:103A9000FFF7A6FE28B92846FFF7A2FE08B9FFF7F0
:103AA0005EFEFFF738FE012101EB4401C8B2FFF7CB
:103AB00097FE48B93946304602E00000000C01404C
:103AC000FFF742FFFFF74BFEBDE8F0812DE9F04123
:103AD00005460E4617469846FFF71DFE002141EAAF
:103AE0004501C8B2FFF77CFE60B93046FFF778FEAB
:103AF00040B9002404E0385DFFF772FE601CC4B2D8
:103B00004445F8DBFFF72BFEBDE8F08108B56A46B7
:103B100000216820FFF776FF9DF80000FFF793FD76
:103B200008BD01B59DF80000FFF797FD00906A46BB
:103B300000216820FFF788FF08BD08B56A4601210B
:103B40006820FFF75FFF9DF80000FFF77CFD08BDD0
:103B500001B59DF80000FFF780FD00906A46002146
:103B60006820FFF771FF08BD08B56A46022168208A
:103B7000FFF748FF9DF80000C0F3801008BD08B5AE
:103B80006A4602216820FFF73DFF9DF80000C0F360
:103B9000401008BD08B56A4602216820FFF732FFD1
:103BA0009DF8001001F01F00FFF74DFD08BDF8B5AE
:103BB00005460C46002000909DF80000FFF74DFDE3
:103BC00000905CB90C2201212846FFF754FD0646FF
:103BD000FFF743FD40F0400000900CE0012C0AD1BB
:103BE0000C2201212846FFF746FD0646FFF735FD6A
:103BF00040F0600000906A4602216820FFF724FF31
:103C0000F8BD08B56A4602216820FFF7FBFE9DF863
:103C1000001001F03F00FFF716FD08BD01B59DF84B
:103C20000000FFF71AFD00906A4602216820FFF7A6
:103C30000BFF08BD08B56A4603216820FFF7E2FEC6
:103C40009DF80000FFF7FFFC08BD01B59DF80000DE
:103C5000FFF703FD00906A4603216820FFF7F4FE9A
:103C600008BD08B56A4604216820FFF7CBFE9DF821
:103C70000000FFF7E8FC08BD01B59DF80000FFF764
:103C8000ECFC00906A4604216820FFF7DDFE08BDC9
:103C900008B56A4605216820FFF7D6FE9DF80000AA
:103CA000FFF7D1FC08BD01B59DF80000FFF7D5FC7A
:103CB00000906A4605216820FFF7C6FE08BD08B5DA
:103CC0006A4606216820FFF79DFE9DF80000FFF779
:103CD000BAFC08BD01B56A4606216820FFF7B4FEAC
:103CE00008BD2DE9F04104460D4616461F46FFF774
:103CF00051FF2070FFF721FF2870FFF707FF30709A
:103D0000FFF73DFF3870BDE8F0812DE9F04107462F
:103D10000C4615461E4631463846FFF748FF2046FA
:103D2000FFF716FF2846FFF7FCFEBDE8F08170B5EF
:103D300004460D461646FFF764FF2070FFF7FDFEB0
:103D40002870FFF7E3FE307070BD70B506460C4674
:103D500015463046FFF762FF2046FFF7F9FE28467A
:103D6000FFF7DFFE70BD2DE9F04104460D46164613
:103D70001F46FFF75FFF2070FFF773FF2870FFF704
:103D800087FF3070FFF79BFF3870BDE8F0812DE9A9
:103D9000F04107460C4615461E463846FFF755FFCC
:103DA0002046FFF769FF2846FFF77DFF3046FFF703
:103DB00091FFBDE8F08108B5102000906A46072108
:103DC0006820FFF741FE08BD08B56A460721682054
:103DD000FFF718FE9DF8000001116A48C17308BD85
:103DE00010B568490879FFF738FC674908706549DC
:103DF0004879FFF732FC6449487062498879FFF7D7
:103E00002CFC614988705F49C879FFF726FC5E4940
:103E1000C8705C49087AFFF720FC5B490871594972
:103E2000487AFFF71AFC584948715649897AA1F532
:103E3000FA61C8B2FFF711FC53498871102151484B
:103E40000173007B5049C87108230A46002168208D
:103E5000FFF73CFE10BD10B5FFF7B6FF4948C07B29
:103E6000012803D0FFF7A7FFFFF7BAFF10BD10B579
:103E70000823454A00216820FFF7FEFD42490878E3
:103E8000FFF7E1FB40B23F4908713F494878FFF72F
:103E9000DAFB41B23B4841713B498878FFF7D3FBDD
:103EA00041B2384881713849C878FFF7CCFB41B23C
:103EB0003448C17134490879FFF7C5FB41B2314834
:103EC000017231494879FFF7BEFB41B22D4841727A
:103ED0002D498879FFF7B7FB00F5FA602949488139
:103EE0002948C1792748017310BD10B58CB0254809
:103EF00090F904000190234890F9050002902148B0
:103F000090F90600C01F03901E4890F90800049025
:103F10001C4890F90900401E05901A48B0F90A00A3
:103F2000A0F26C70069001A801F0BEFE0446154890
:103F300004600CB010BD38B505460095684602F027
:103F40009FF80446A08A00F26C7001B20D484181CE
:103F5000207C401C41B20B484172207B41B2094891
:103F60000172207AC01D41B206488171207941B2A8
:103F700004484171207840B202490871FFF730FFD0
:103F800038BD000004090020FC0800203EB5402197
:103F90007C48FCF7CCFA044680217A48FCF7C7FA43
:103FA0000546FFF764FFFFF7A0FF012202217648D4
:103FB000FCF7DBFA69208DF800000C208DF8010079
:103FC00001208DF802000A208DF803008DF80440CE
:103FD0008DF805506D480068000E8DF806006B489E
:103FE0000068000C8DF8070068480088000A8DF80A
:103FF0000800664800788DF80900654800788DF85B
:104000000A0063480078401C614908700C2168462A
:1040100000F082FE8DF80B000C2269460220FFF7AB
:104020001BFA0C2269460120FFF716FA0022022132
:104030005548FCF79AFA02210846FDF7C8FE3EBD36
:104040000EB5012202215048FCF78FFA69208DF845
:10405000000005208DF801008DF802000A208DF87F
:1040600003000521684600F057FE8DF80400052284
:1040700069460220FFF7F0F9052269460120FFF7A3
:10408000EBF9002202214048FCF76FFA0EBD3EB565
:1040900040213C48FCF74BFA044680213948FCF7A4
:1040A00046FA0546FFF7E3FEFFF71FFF0122022154
:1040B0003548FCF75AFA69208DF800000C208DF87D
:1040C000010002208DF802000B208DF803008DF80E
:1040D00004408DF805502D480068000E8DF806004C
:1040E0002A480068000C8DF8070028480088000A5C
:1040F0008DF80800254800788DF80900254890F8CB
:1041000044008DF80A000C21684600F005FE8DF889
:104110000B000C2269460220FFF79EF90C2269462B
:104120000120FFF799F9002202211748FCF71DFA38
:104130003EBD0EB5012202211348FCF716FA692094
:104140008DF8000005208DF8010006208DF8020092
:104150000B208DF803000521684600F0DDFD8DF889
:104160000400052269460220FFF776F90522694618
:104170000120FFF771F9002202210348FCF7F5F94D
:104180000EBD00000010014000080140040900209D
:1041900014090020800A002000B591B001214802D6
:1041A000FCF7EEFB01210420FCF7EAFB0120ADF84F
:1041B000400000208DF8430003208DF8420010A934
:1041C0004648FCF721F900200B908DF830000120C3
:1041D0008DF831004FF460200D9000200E900120EA
:1041E0008DF83C000BA93E48FCF759FE052301223F
:1041F00000213B48FCF7EBFE01213948FCF77BFE30
:104200000120FDF709F83648FCF797FE00BF344857
:10421000FCF798FE0028FAD13148FCF79DFE00BF5C
:104220002F48FCF79EFE0028FAD101212C48FCF70C
:10423000A2FE2C48FDF734F829484C3000902A485B
:10424000006801900020029001200390002004905B
:1042500005904FF48060069007902020089000029F
:10426000099000200A9069461E48FDF7BAF801211E
:104270001C48FDF7E1F811B000BD2DE9F04F87B003
:10428000002006901648FCF709FF019001F07AFE25
:1042900080464FF06632154B01F093FD0022144B1F
:1042A000CDE9020101F0FFFD0022124BCDE904012E
:1042B00001F087FD064600220F4B01F082FD044607
:1042C00000224FF0804301F0EEFD824601F067FED0
:1042D0000690069807B0BDE8F08F00000008014086
:1042E00000240140080002401809002066660A40C8
:1042F00000FEAF40000059400000314010B5FDF70E
:1043000014F92348FDF756F9224823490860234849
:1043100000784860214880788860002409E01E4ABF
:1043200052F824101A4A02EB8400FDF719FA601CB7
:10433000C4B2322CF3DBFDF704F910BD10B5FF2039
:104340001649087000208870FFF7D8FF10BD0020C4
:1043500007E00F4A52F820100F4A42F82010411C83
:10436000C8B23228F5DB704710B5FFF7F0FF0A48F6
:1043700000680849884202D0FFF7E0FF06E00648DF
:104380000079064908700448007A887010BD000062
:1043900000E0000895190828B8090020800A0020CC
:1043A00010B54021FD48FCF7C2F8FD4981F85000E6
:1043B0008021FA48FCF7BBF8F94981F851004FF425
:1043C0000071F648FCF7C0F8F54981F852004FF447
:1043D0008071F248FCF7B8F8F14981F853004FF4C6
:1043E0008071F048FCF7B0F8ED4981F854001021D5
:1043F000ED48FCF79CF8EA4981F857000821EA48A3
:10440000FCF795F8E64981F856000421E648FCF7E8
:104410008EF8E34981F8550010BD00B585B000F075
:104420002AFEE24890F8410001284ED14FF4FA707C
:1044300000F011FEFFF7B4FFD94800780A2820D118
:10444000D74890F85500D64991F85610D44A92F8BA
:104450005720D34B93F85430CDE90132CDE9031006
:10446000CF4890F853000090CD4890F8523090F823
:10447000512090F85010CE48FEF7DFFECDA0FEF799
:10448000DCFEC74800780B281FD1C54890F855209E
:1044900090F85600C24991F85710C14B93F8543028
:1044A000CDE90131CDE90302BD4890F853000090F9
:1044B000BB4890F8523090F8512090F85010C14805
:1044C000FEF7BBFEC0A0FEF7B8FE05B000BD10B5FC
:1044D00000F081FDB54890F82100012808D14FF483
:1044E000FA6000F068FDAE484078401CAC49487066
:1044F000AB484078052826DBB7A0FEF79EFE0920D2
:10450000BB4908700020BB490870A548C078D0B9E5
:104510000120A349C87008468078401C8870FFF7C6
:10452000EDFE00224FF400719C48FCF71EF80022BB
:104530004FF480719948FCF718F800224FF480710D
:104540009848FCF712F810BD10B500F06CFD9748C4
:1045500090F8310001280DD14FF4FA7000F053FDAE
:104560008F48007930B98E4890F85800012801D161
:104570008B4908718A48007901280CD10A209C498E
:104580000870874890F8580028B9002084490871BD
:1045900004209749087010BD10B50220FEF772FE86
:1045A000954890F8F800012878D10020924981F8C8
:1045B000F800084690F8FA1000F5D07000F07CFB87
:1045C0008E48C0780A2834D18C488078012802D0DF
:1045D00005282CD11BE08848B0F8FA2000F5D071EE
:1045E0006F482C3001F0B4FB834890F8FA106C4807
:1045F00080F8391001F050F801F0C4F801F0EEF83D
:1046000002210846FDF7E3FBFFF741FD10E0002023
:104610006349C8704870FFF78CFD7648007828B968
:10462000FF207449087004207149087000E000BF41
:1046300000BF7248C0780B2830D1704880780228BB
:1046400002D0062828D114E06B48B0F8FA2000F513
:10465000D0715348083001F07BFB674890F8FA109E
:104660004F48417500F02AFD00F07DFD00F0A7FDE8
:1046700013E000204A49C87048705E48007828B9A5
:10468000FF205C49087004205949087000E005E0EB
:104690005BA0FEF7D2FD00E000BF00BF10BD00240C
:1046A0003F480078FF2805D00020514908705E4936
:1046B000087004E001204E4908705B4908704AE127
:1046C0004B48007801281AD1FEF799F900F050FB09
:1046D000012814D100F0B4FB0220454908700024E1
:1046E000FDF786FD51A200210846FDF7D8FC53A234
:1046F00000210120FDF7D3FC01204B4908704A48F6
:104700000078C0B900F034FB012814D100F098FB08
:104710000220374908700024FDF76AFD43A20021FA
:104720000846FDF7BCFC45A200210120FDF7B7FCBF
:1047300001203D4908702E480078022801D1FEF77B
:1047400065F9394800780028B9D12948007838B986
:10475000FDF75CFD0A2C02D90024FDF749FDB5E008
:104760002348007804280AD1FDF791FD322C05D9A1
:10477000002406201E490870FDF73AFDA6E01C48FB
:104780000078062864D1FDF754FE322C05D90024A8
:10479000072017490870FDF72BFD97E00010014036
:1047A000800A002000080140001801404C09002048
:1047B000E86D00085B4D2D2D5D20092D2D2D09097B
:1047C0000D0A0000306E00085B532D2D5D20090995
:1047D0002D2D2D09090D0A00203D3D3D3E2045525D
:1047E000524F5220434F4E4E454354200D0A000075
:1047F0001C0900201E0900202A030020DC0A0020DA
:104800006D617374657220636F6E6E65637420747E
:1048100068616E6820636F6E67203D3D3D3D3D3DA4
:104820003D3D3D200D0A0000210900202020434885
:104830004F4E204D4F44452020000000204D415355
:1048400054455220202020534C4156450000000082
:104850004248007807280AD1FDF75EFE322C35D990
:10486000002406203D490870FDF7C2FC2EE03B48BD
:104870000078082807D1FEF734F8322C26D9002416
:10488000FDF7B6FC22E035480078092807D1FEF78D
:1048900050F8322C1AD90024FDF7AAFC16E02F4854
:1048A00000780A2807D1FEF76EF8322C0ED90024C2
:1048B000FDF79EFC0AE0294800780B2806D1FEF798
:1048C00080F8322C02D90024FDF792FC00F03CFB6A
:1048D00023484078012803D1052000F027FB641C01
:1048E000FFF75AFE1F4800780A282ED100F04EFB31
:1048F0001B48407C012828D14FF4FA7000F038FBA7
:104900001948007808B9FFF79BFB17480078012881
:1049100001D1FFF73BFB14484078401C1249487016
:1049200008464078052801DB002048700E48407892
:10493000012803D100200C49087006E00A4840789D
:10494000012802D0012008490870FFF7FDFDFFF79C
:10495000BEFDFFF762FDB3E6704770471C090020FB
:104960004C090020800A00209C09002070B50446F4
:104970000D46284605EBD0767610A5EB460616B90F
:10498000B5F5807F01DD002070BD002172E0605C24
:1049900042284FD00EDCA0F13000122865D2DFE8AB
:1049A00000F02225282B2E3134373A3D64646464AC
:1049B0006464644362283AD00CDC45284CD004DCA3
:1049C00043283DD0442850D140E046284AD06128B1
:1049D0004BD126E0632830D0642834D0652838D005
:1049E000662842D13BE00020605440E00120605442
:1049F0003DE0022060543AE00320605437E0042098
:104A0000605434E00520605431E0062060542EE00C
:104A1000072060542BE00820605428E009206054EF
:104A200025E00A20605422E00A2060541FE00B2099
:104A300060541CE00B20605419E00C20605416E018
:104A40000C20605413E00D20605410E00D206054E1
:104A50000DE00E2060540AE00E20605407E00F20A5
:104A6000605404E00F20605401E000208CE700BF98
:104A7000481C81B2A9428ADB284605EBD076C6F3F2
:104A80004F061E8000210EE014F81100F02606EA01
:104A90000010012606EB4106A65D06F00F06304326
:104AA0005054481C81B205EBD576B1EB660FEBDBB9
:104AB000012069E770B505460C46802C01DD002019
:104AC00070BD0021CAE0685C00F0F00000F00F0645
:104AD000002E4CD10011102849D2DFE800F0080C5C
:104AE0001014181C2024282C3034383C404430202A
:104AF00002F811003DE0312002F8110039E03220C7
:104B000002F8110035E0332002F8110031E03420C2
:104B100002F811002DE0352002F8110029E03620BE
:104B200002F8110025E0372002F8110021E03820BA
:104B300002F811001DE0392002F8110019E04120AF
:104B400002F8110015E0422002F8110011E04320A4
:104B500002F811000DE0442002F8110009E04520A0
:104B600002F8110005E0462002F8110001E00020E3
:104B7000A6E700BF685C00F00F00102869D2DFE8EC
:104B800000F0080E141A20262C32383E444A5056A3
:104B90005C623020012606EB410690555BE0312037
:104BA000012606EB4106905555E03220012606EB22
:104BB000410690554FE03320012606EB4106905503
:104BC00049E03420012606EB4106905543E03520AC
:104BD000012606EB410690553DE03620012606EB06
:104BE0004106905537E03720012606EB41069055E7
:104BF00031E03820012606EB410690552BE03920A4
:104C0000012606EB4106905525E04120012606EBE2
:104C1000410690551FE04220012606EB41069055C3
:104C200019E04320012606EB4106905513E044208D
:104C3000012606EB410690550DE04520012606EBC6
:104C40004106905507E04620012606EB41069055A7
:104C500001E0002034E700BF481C81B2A142FFF60A
:104C600032AF4FF6FF7000EA44001880012027E7BA
:104C700010B502460B460020002104E0545C0444B9
:104C8000E0B24C1CE1B25C1E8C42F7DC10BD0000AF
:104C900010B502460024002304E0D05C2044C4B2D6
:104CA000581CC3B2481E9842F7DC105CA04201D1E8
:104CB000012010BD1020FCE770B504460D46207899
:104CC0001D4908706078487008460078692802D04D
:104CD000FF20087070BD052D04DA174840780528BC
:104CE00000DAF7E761782046FFF7D2FF102800D1FD
:104CF000F0E7A07810498870E078C87008464078DE
:104D0000401F81F85400084690F85420211D001DD2
:104D100001F01EF800BFDDE710B502460B4600208B
:104D2000002104E0545C0444E0B24C1CE1B25C1E7F
:104D30008C42F7DC10BD0000DC0A002010B5012118
:104D40005E48FBF7F4FB5E49087010215D48FBF7F5
:104D5000EEFB5B49487020215A48FBF7E8FB5849B5
:104D6000887080215848FBF7E2FB5549C87010BD98
:104D700010B55348007958B9FFF7E0FF5048C078A4
:104D800030B901204E49087100F0CDF84C498860D7
:104D90004B480079012819D1FFF7D0FF00F0C3F884
:104DA00047498968401A4649C8600846C068FA28D9
:104DB0000CD90846C078012802D1C87106200871B4
:104DC0003F48C07810B904203D4908713C4800793B
:104DD00004282BD1FFF7B2FF00F0A5F83849896805
:104DE000401A3749C8600846C078012810D10846E3
:104DF000C06841F28831884205D902203049C87123
:104E00000620087104E003202D49C87106200871AE
:104E10002B48C07850B92A48C06841F2883188428E
:104E200004D902202649C871062008712448007957
:104E3000062802D10020224908712148C07910BDFE
:104E400000201F49C871704710B504461C48007DFA
:104E500058B9FFF773FF1A48005D30B901201849AF
:104E6000087500F060F8164988611548007D012832
:104E700019D1FFF763FF00F056F811498969401A0C
:104E80000F49C86108468069FA280CD90846C078DD
:104E9000012802D1C871062008750948005D10B9C3
:104EA0000620074908750648007D062802D1002023
:104EB000034908750248C07910BD0000000C01408C
:104EC00024090020001001400008014030B5764858
:104ED00000686422B0FBF2F1B1F1807F01D30120C0
:104EE0001DE021F07F40401E4FF0E022506150173E
:104EF0000F22002807DA13071D0E6C4B00F00F0479
:104F0000241F1D5503E013071C0E694B1C5400BFE2
:104F100000204FF0E022906107201061002008B1CE
:104F200000BFFEE730BD63480068704700B501462A
:104F30000020614A5070FFF7F6FF5F4A506010464C
:104F400081600120107000BD00B55B480078012829
:104F50000DD1FFF7E8FF58494968401A564989685A
:104F6000884204D90120544948700020087000BDCF
:104F700000B50146002250484274FFF7D4FF4E4A64
:104F80005061104681610120107400BD00B54A488F
:104F9000007C01280ED1FFF7C6FF47494969411A35
:104FA00045488069814205D9012143484174002068
:104FB0004149087400BD00B5014600223E4880F812
:104FC0002120FFF7B0FF3C4A506210468162012069
:104FD00082F8200000BD00B5374890F82000012875
:104FE00010D1FFF7A0FF3449496A411A3248806A5C
:104FF000814207D90121304880F8211000202E4934
:1050000081F8200000BD00B5014600222A4880F842
:105010003120FFF788FF284A506310468163012042
:1050200082F8300000BD00B5234890F83000012818
:1050300010D1FFF778FF2049496B411A1E48806B59
:10504000814207D901211C4880F8311000201A49FB
:1050500081F8300000BD00B501460022164880F8F6
:105060004120FFF760FF144A50641046816401201C
:1050700082F8400000BD00B50F4890F840000128BC
:1050800010D1FFF750FF0C49496C411A0A48806C57
:10509000814207D90121084880F8411000200649C3
:1050A00081F8400000BD00001C00002018ED00E069
:1050B00000E400E0480900204C09002010B5F4A0ED
:1050C000FEF7BBF8FB48017A0175417A4175817A98
:1050D0008175C17AC175017B0176417B4176807B08
:1050E0000106F448C07B41EA0041F248007C41EAF5
:1050F0000020F049497C0843EE49C8610846817C9C
:1051000080F8201090F82010EBA0FEF796F8E94800
:10511000007E38B9E748407E012803D10121E548E7
:1051200081761FE0E348007E012806D1E148407EF9
:1051300018B90021DF48817614E0DE48007E01289E
:1051400007D1DC48407E012803D10221D94881766D
:1051500008E0D848007E28B9D648407E10B903211F
:10516000D448817610BDD34991F8200000EBD0716E
:105170004910A0EB410109BBD5480078401CD44937
:10518000087008460078022806DB084600780428E4
:1051900002DA0020C749C871CD480078042806DB30
:1051A000CB480078062802DA0120C249C871C848F5
:1051B0000078062802DB0020C5490870704710B54A
:1051C000BC4890F85000D0B9BA4890F85100B0B936
:1051D00000224FF48071BF48FBF7C7F900224FF45B
:1051E0008071BD48FBF7C1F900224FF40071BA4845
:1051F000FBF7BBF90120AF4981F8580037E2AD4811
:10520000007EC8B9AB48407EB0B900224FF480712F
:10521000B048FBF7AAF900224FF48071AE48FBF7C3
:10522000A4F900224FF40071AB48FBF79EF901206E
:10523000A04981F858001AE200209E4981F85800E0
:105240000846807E01286FD100220102A148FBF7A9
:105250008CF901221102A048FBF787F904219F482D
:10526000FBF765F9934981F8270008219B48FBF774
:105270005EF9904981F82800084690F82700012837
:105280004AD1084690F82800002845D108219348C3
:10529000FBF74DF9874981F8250004218F48FBF77A
:1052A00046F9844981F82600084640790028A5D1AE
:1052B000012251028848FBF758F910218748FBF773
:1052C00036F97C4981F82900084690F8290020B970
:1052D0000021784880F82410C9E10121754880F840
:1052E00024107FA0FDF7A9FF72488079401C714906
:1052F0008871084680790A289DDB00208871002289
:105300004FF400717448FBF730F901206949487186
:105310000B2079490870AAE14FF480716E48FBF7C1
:1053200013F910B9012101E03FE00021614880F844
:1053300025104FF480716748FBF706F908B9012181
:1053400000E000215B4880F8261000224FF4007135
:105350006148FBF70AF957488079401C5549887124
:10536000084680790A2807DB002088710B206249F3
:10537000087062A0FDF761FF10215848FBF7D7F8CD
:105380004C4981F82900084690F82900012804D1E9
:105390000121484880F8241069E10021454880F83F
:1053A000241056A0FDF749FF61E14248807E0028A5
:1053B0006BD157A0FDF741FF012211024548FBF7D1
:1053C000D4F800224FF480714348FBF7CEF8042153
:1053D0004248FBF7ACF8374981F8270008213F48DD
:1053E000FBF7A5F8334981F82800084690F8270014
:1053F00000284BD1084690F82800012846D1082102
:105400003648FBF794F82B4981F8250004213348EE
:10541000FBF78DF8274981F82600084640790028D7
:10542000BAD1012251022C48FBF79FF810212B48DA
:10543000FBF77DF81F4981F82900084690F82900FC
:1054400020B900211B4880F8241010E101211948DF
:1054500080F8241032A0FDF7F0FE16488079401C39
:1054600014498871084680790A2895DB00208871E4
:1054700000224FF400711848FBF777F801200D491E
:1054800048710B201C490870F1E082E050E00000F8
:105490005B4D41535445525D20736C6176654220EB
:1054A000616E616C797A65206D61737465724120FB
:1054B0000D0A0000800A00205B4D41535445525DA7
:1054C000206D73675F636E74202564200D0A0000F1
:1054D0001F09002000080140001001400018014091
:1054E0004552524F5220666220524620412D3E487E
:1054F0002020422D3E4C00001C0900204552524FF6
:105500005220666220727861202D7278640000005B
:1055100041207468617020422063616F200D0A0091
:105520004552524F52206662205246202D2D0000D7
:1055300000224FF400714E48FBF717F84D48807970
:10554000401C4C498871084680790A2808DB0020F5
:1055500088710B2048490870AFF26000FDF76DFEBE
:1055600010214648FAF7E3FF424981F8290008462E
:1055700090F82900012804D100213E4880F8241029
:1055800075E001213B4880F824103DA0FDF755FE51
:105590006DE03848807E022869D10022C1013D4873
:1055A000FAF7E3FF00224FF480713148FAF7DDFF8C
:1055B00004213248FAF7BBFF2E4981F82700082161
:1055C0002E48FAF7B4FF2B4981F82800084690F8D6
:1055D000280001284BD1084690F82700012846D121
:1055E00008212648FAF7A3FF224981F82500042163
:1055F0002248FAF79CFF1F4981F8260008464079A7
:10560000A8BB012251021A48FAF7AFFF10211B482C
:10561000FAF78DFF174981F82900084690F82910FC
:1056200090F85200814204D00021124880F82410E2
:105630001DE001210F4880F82410AFF21C10FDF787
:10564000FCFD0C488079401C0A4988710846807925
:105650000A280CDB00208871012048710B200649C4
:10566000087000224FF400710148FAF77EFF10BD68
:1056700000100140800A00201C0900200018014091
:105680004552524F522066622072786120727864CF
:10569000202D2D000008014010B5F5A0FDF7CDFD2F
:1056A000FC4890F82C1080F8381090F82D1080F8F5
:1056B000391090F82E1080F83A1090F82F1080F8DA
:1056C0003B1090F8301080F83C1090F8311080F8C2
:1056D0003D1090F832000106EE4890F8330041EAA0
:1056E0000041EC4890F8340041EA0020E94991F883
:1056F00035100843E7490864084690F8361080F8EA
:10570000441090F84410E4A0FDF797FDE14890F8AC
:105710003C0048B9DF4890F83D00012804D1012140
:10572000DC4880F83E1028E0DA4890F83C00012878
:1057300008D1D84890F83D0020B90021D54880F81C
:105740003E101AE0D34890F83C00012809D1D14816
:1057500090F83D00012804D10221CE4880F83E1087
:105760000BE0CC4890F83C0038B9CA4890F83D00AE
:1057700018B90321C74880F83E10C649086CFEF7E7
:10578000DAFB10BDC34991F8440000EBD071491019
:10579000A0EB410109BBC6480078401CC449087011
:1057A00008460078022806DB08460078042802DA5A
:1057B0000020B849C871BE480078042806DBBC4800
:1057C0000078062802DA0120B249C871B84800788A
:1057D000062802DB0020B6490870704710B5AD48B6
:1057E00090F85000D0B9AB4890F85100B0B9002201
:1057F0004FF48071AF48FAF7B8FE00224FF4807181
:10580000AD48FAF7B2FE00224FF40071AA48FAF749
:10581000ACFE01209F4981F8580028E29D4890F88D
:105820003C00D0B99B4890F83D00B0B900224FF43D
:105830008071A048FAF799FE00224FF480719E48CB
:10584000FAF793FE00224FF400719B48FAF78DFEA1
:105850000120904981F8580009E200208D4981F823
:105860005800084690F83E0001286FD1002201023E
:105870009048FAF77AFE012211028F48FAF775FE76
:1058800004218E48FAF753FE824981F84B00082123
:105890008A48FAF74CFE7F4981F84C00084690F898
:1058A0004B0001284AD1084690F84C00002845D109
:1058B00008218248FAF73BFE764981F84900042125
:1058C0007E48FAF734FE734981F84A000846407969
:1058D0000028A2D1012251027748FAF746FE102192
:1058E0007648FAF724FE6B4981F84D00084690F897
:1058F0004D0020B90021674880F84810B7E1012128
:10590000644880F848106EA0FDF797FC61488079E4
:10591000401C60498871084680790A289CDB002079
:10592000887100224FF400716348FAF71EFE0120CF
:10593000584948710B206849087098E14FF480710C
:105940005D48FAF701FE10B9012101E03FE00021B6
:10595000504880F849104FF480715648FAF7F4FD2A
:1059600008B9012100E000214A4880F84A100022CD
:105970004FF400715048FAF7F8FD46488079401C12
:1059800044498871084680790A2807DB002088711D
:105990000B205149087051A0FDF74FFC10214748DA
:1059A000FAF7C5FD3B4981F84D00084690F84D00D7
:1059B000012804D10121374880F8481057E100211F
:1059C000344880F8481045A0FDF737FC4FE13148D6
:1059D00090F83E00002849D1012211023548FAF71B
:1059E000C4FD00224FF480713348FAF7BEFD042154
:1059F0003248FAF79CFD274981F84B0008212F48CF
:105A0000FAF795FD234981F84C00084690F84B00C1
:105A100000286DD1084690F84C00012868D1082173
:105A20002648FAF784FD1B4981F8490004212348E0
:105A3000FAF77DFD174981F84A00084640790028A9
:105A4000BCD1012251021C48FAF78FFD10211B48DE
:105A5000FAF76DFD0F4981F84D00084690F84D00AA
:105A600028B900210B4880F8481000E191E040E09F
:105A70005B534C4156455D206D61737465724120E6
:105A80007265717565737420736C617665200D0A9B
:105A900000000000800A00205B534C4156455D2009
:105AA0006D73675F636E74202564200D0A0000002B
:105AB0001F090020000801400010014000180140AB
:105AC0004552524F5220666220524620412D3E4898
:105AD0002020422D3E4C00001C0900204552524F10
